:020000020000FC
:100000000C9468000C9446000C9447000C94480033
:100010000C9449000C944A000C944B000C944C0036
:100020000C944D000C944E000C944F000C94500016
:100030000C9451000C9452000C9453000C945400F6
:100040000C9455000C9456000C9457000C945800D6
:100050000C9459000C945A000C945B000C945C00B6
:100060000C945D000C945E000C945F000C94600096
:100070000C9461000C9462000C9463000C94640076
:100080000C9465000C9466000C9467001895189504
:1000900018951895189518951895189518951895F8
:1000A00018951895189518951895189518951895E8
:1000B00018951895189518951895189518951895D8
:1000C00018951895189518951895189518951895C8
:1000D000E0E0F1E000270193F031E9F7EF3FD9F7D5
:1000E000EEE1FF27EA95F083E9F70FEF0DBF00E19E
:1000F0000EBF0F9307E009B90F910F9300E0009333
:1001000090000F9102E00BB908E10AB906E00093F4
:1001100095000FEF0ABB009361000FED04BB0EE0EA
:100120000093640015D5463431F1463511F142355E
:10013000F1F0473581F0433581F0493491F0443591
:1001400071F0413581F0453481F035E605D533E66F
:1001500003D50C9492000C94E1010C9468020C9469
:100160003A050C946A020C9438030C940C040C9419
:10017000A8010C94FC000FEF0DBF00E10EBF5F9BC8
:10018000FECF4CB1413471F04534E9F035E6E4D4AA
:100190003DB7E2D43EB7E0D40FEF0DBF00E10EBF94
:1001A0000C9492005F9BFECF4CB1742F5F9BFECFEF
:1001B0004CB1842F5F9BFECF4CB1942F7F938F93D4
:1001C0009F930C94BF009F918F917F917BBB85BBC8
:1001D000909362000000000036B35D9BFECF3CB9F7
:1001E00030B35D9BFECF3CB90DB70F3F61F70EB743
:1001F000003149F70C9492005F9BFECF4CB1443420
:1002000071F0453431F135E6A7D43DB7A5D43EB7FA
:10021000A3D40FEF0DBF00E10EBF0C9492005F9BC3
:10022000FECF4CB1742F5F9BFECF4CB1842F5F9BF0
:10023000FECF4CB1942F5F9BFECF4CB1542F5F9BF0
:10024000FECF4CB1642F7F938F939F935F936F93F7
:10025000D3CF0CE0009365000FEF07BB01BB08BBD9
:1002600002BB70E281E19CE252E461E87BBB85BBAA
:100270009093620004E00093650058BB62BB0CE001
:100280000093650072E084E892E158E262E27BBB91
:1002900085BB9093620004E00093650058BB62BB8D
:1002A0000CE00093650070E281E19CE250E460E8BC
:1002B0007BBB85BB9093620004E00093650058BB54
:1002C00062BB0CE0009365006F915F919F918F91ED
:1002D0007F917BBB85BB9093620004E00093650037
:1002E00058BB62BB0CE000936500000000E205BB58
:1002F0009D99FECF9D9BFECF0DB70F3F39F50EB7F1
:10030000003121F570E281E19CE258E060E87BBBBE
:1003100085BB9093620004E00093650058BB62BB0C
:100320000CE00093650070E281E19CE250E060E047
:100330007BBB85BB9093620004E00093650058BBD3
:1003400062BB0CE0009365000C9492000C942901B0
:10035000FFD3742FFDD3842FFBD3942FF9D3242FF5
:10036000271B281B291B41F035E6F6D333E6F4D3CF
:1003700032E7F2D30C949200123551F008E000936A
:10038000650000E007BB01BB0FEF08BB02BB12E535
:1003900008E0009365007BBB85BB90936200000082
:1003A0000000000056B360B320E0251B261B34E696
:1003B000D3D3352FD1D3362FCFD3322FCDD30C94E7
:1003C0009200C6D3742FC4D3842FC2D3942FC0D32A
:1003D000542FBED3642FBCD3242F271B281B291BCB
:1003E000251B261B31F035E6B7D333E6B5D337E707
:1003F000B3D317E50CE0009365000FEF07BB01BB1B
:1004000008BB02BB7F938F939F935F936F9370E2C0
:1004100081E19CE252E461E87BBB85BB9093620082
:1004200004E00093650058BB62BB0CE000936500DC
:1004300072E084E892E158E262E27BBB85BB909374
:10044000620004E00093650058BB62BB0CE00093BF
:10045000650070E281E19CE250E460E87BBB85BB13
:100460009093620004E00093650058BB62BB0CE00F
:10047000009365006F915F919F918F917F917BBBFE
:1004800085BB9093620004E00093650058BB62BB9B
:100490000CE00093650008E00093650000E007BBF6
:1004A00001BB0FEF08BB02BB00E205BB9D99FECF6D
:1004B00037E752D356B360B39D9BFCCF37E64CD39E
:1004C00034E64AD3352F48D3362F46D30C949200C6
:1004D0000C94920039E640D339E63ED319E40CE09F
:1004E000009365000FEF07BB01BB08BB02BB70E2C6
:1004F00081E19CE258E462E87BBB85BB909362009B
:1005000004E00093650058BB62BB0CE000936500FB
:1005100000000000000000000000000000000000DB
:1005200000000000000000000000000000000000CB
:1005300000000000000000000000000000000000BB
:10054000000070E281E19CE252E461E87BBB85BB84
:100550009093620004E00093650058BB62BB0CE01E
:100560000093650072E084E892E158E262E27BBBAE
:1005700085BB9093620004E00093650058BB62BBAA
:100580000CE00093650070E281E19CE258E060E8D5
:100590007BBB85BB9093620004E00093650058BB71
:1005A00062BB0CE00093650008E00093650000E08A
:1005B00007BB01BB0FEF08BB02BB70E080E090E01F
:1005C0007BBB85BB9093620000000000000056B327
:1005D00060B3352FC1D2362FBFD270E081E090E0FA
:1005E0007BBB85BB9093620000000000000056B307
:1005F00060B3352FB1D2362FAFD270E084E090E0F7
:100600007BBB85BB9093620000000000000056B3E6
:1006100060B3352FA1D2362F9FD270E085E090E0F5
:100620007BBB85BB9093620000000000000056B3C6
:1006300060B3352F91D2362F8FD20CE00093650036
:100640000FEF07BB01BB08BB02BB70E281E19CE27C
:1006500058E462E87BBB85BB9093620004E00093A2
:10066000650058BB62BB0CE0009365000C949200DF
:100670006FD2413551F0413451F035E66DD233E659
:100680006BD231E769D20C9492000C944B030C941A
:10069000B3030C94920031E75FD211E50CE00093B4
:1006A00065000FEF07BB01BB08BB02BB70E281E135
:1006B00090E25AE060E87BBB85BB9093620004E067
:1006C0000093650058BB62BB0CE00093650008E036
:1006D0000093650000E007BB01BB0FEF08BB02BB46
:1006E00070E280E090E07BBB85BB909362000000ED
:1006F0000000000056B360B3352F2ED2362F2CD217
:1007000070E281E090E07BBB85BB909362000000CB
:100710000000000056B360B3352F1ED2362F1CD216
:1007200070E284E090E07BBB85BB909362000000A8
:100730000000000056B360B3352F0ED2362F0CD216
:1007400070E281E190E258E462E87BBB85BB909364
:10075000620004E00093650058BB62BB0CE00093AC
:1007600065000C949200F4D1742FF2D1842FF0D153
:10077000942F7F938F939F9311E531E7EDD130E272
:10078000EBD132E0E9D130E0E7D132E2E5D10CE063
:10079000009365000FEF07BB01BB08BB02BB70E213
:1007A00081E190E25AE060E87BBB85BB90936200F8
:1007B00004E00093650058BB62BB0CE00093650049
:1007C00008E00093650000E007BB01BB0FEF08BB2A
:1007D00002BB9F918F917F917BBB85BB9093620001
:1007E00000000000000056B360B3352FB5D1362F9E
:1007F000B3D170E281E190E258E462E87BBB85BB53
:100800009093620004E00093650058BB62BB0CE06B
:10081000009365000C9492009BD1423461F0433404
:1008200041F035E699D133E697D135E695D10C9470
:1008300092000C94BE048CD1742F8AD1842F88D15D
:10084000942F86D1242F271B281B291B41F035E626
:1008500083D133E681D132E67FD10C94920015E446
:100860000CE0009365000FEF07BB01BB08BB02BBA8
:100870007F938F939F9370E281E19CE252E461E861
:100880007BBB85BB9093620004E00093650058BB7E
:1008900062BB0CE00093650072E084E892E158E2EC
:1008A00062E27BBB85BB9093620004E0009365002D
:1008B00058BB62BB0CE00093650070E281E19CE2F2
:1008C00050E060E87BBB85BB9093620004E000933E
:1008D000650058BB62BB0CE00093650070E281E1EB
:1008E0009CE252E461E87BBB85BB9093620004E02C
:1008F0000093650058BB62BB0CE00093650072E09A
:1009000084E892E158E262E27BBB85BB909362008F
:1009100004E00093650058BB62BB0CE000936500E7
:100920009F918F917F9158E460E07BBB85BB909352
:10093000620004E00093650058BB62BB0CE00093CA
:10094000650008E00093650000E007BB01BB0FEF06
:1009500008BB02BB00E205BB9D99FECF35E6FCD08B
:1009600056B360B39D9BFCCF37E6F6D034E6F4D0A7
:10097000352FF2D0362FF0D00C949200E9D04035CC
:1009800041F035E6E9D033E6E7D035E6E5D00C9422
:10099000920015E40CE0009365000FEF07BB01BB6C
:1009A00008BB02BB70E281E19CE252E461E87BBBE0
:1009B00085BB9093620004E00093650058BB62BB66
:1009C0000CE00093650072E084E892E158E262E294
:1009D0007BBB85BB9093620004E00093650058BB2D
:1009E00062BB0CE00093650070E281E19CE250E0A4
:1009F00060E87BBB85BB9093620004E000936500D8
:100A000058BB62BB0CE00093650070E281E19CE2A0
:100A100052E461E87BBB85BB9093620004E00093E5
:100A2000650058BB62BB0CE00093650072E084E88F
:100A300092E158E262E27BBB85BB9093620004E0E6
:100A40000093650058BB62BB0CE00093650070E248
:100A500081E19CE258E060E07BBB85BB9093620043
:100A600004E00093650058BB62BB0CE00093650096
:100A70000C94920014E56CD0413481F0443481F040
:100A8000433481F0493481F0443581F035E664D057
:100A900033E662D034E760D00C9492000C94580591
:100AA0000C9470050C9484050C9498050C94A20584
:100AB0004FD0742F4DD0842F4BD0942F0CE0009347
:100AC00065000FEF07BB01BB08BB02BB7BBB85BB4F
:100AD0009093620034E740D031E63ED00C9492000F
:100AE00037D0542F35D0642F0CE0009365000FEF02
:100AF00007BB01BB08BB02BB58BB62BB34E72CD0B1
:100B000034E62AD00C94920023D04093650020D084
:100B1000409364000CE0009365000FEF07BB01BB3E
:100B200008BB02BB34E718D033E616D00C94920011
:100B30000FD034E711D039E60FD0342F33950CD0D5
:100B40000C94920034E708D034E706D00C9492005D
:100B50005F9BFECF4CB108955D9BFECF3CB90895DD
:00000001FF
